{
  "contractName": "Authentication",
  "abi": [
    {
      "inputs": [],
      "stateMutability": "nonpayable",
      "type": "constructor"
    },
    {
      "anonymous": false,
      "inputs": [
        {
          "indexed": false,
          "internalType": "address",
          "name": "_add",
          "type": "address"
        }
      ],
      "name": "Login",
      "type": "event"
    },
    {
      "anonymous": false,
      "inputs": [
        {
          "indexed": false,
          "internalType": "address",
          "name": "_add",
          "type": "address"
        }
      ],
      "name": "Logout",
      "type": "event"
    },
    {
      "anonymous": false,
      "inputs": [
        {
          "indexed": false,
          "internalType": "address",
          "name": "_add",
          "type": "address"
        }
      ],
      "name": "Look",
      "type": "event"
    },
    {
      "anonymous": false,
      "inputs": [
        {
          "indexed": false,
          "internalType": "address",
          "name": "_add",
          "type": "address"
        }
      ],
      "name": "Modify",
      "type": "event"
    },
    {
      "anonymous": false,
      "inputs": [
        {
          "indexed": false,
          "internalType": "address",
          "name": "_add",
          "type": "address"
        }
      ],
      "name": "Register",
      "type": "event"
    },
    {
      "inputs": [
        {
          "internalType": "string",
          "name": "_username",
          "type": "string"
        },
        {
          "internalType": "string",
          "name": "_password",
          "type": "string"
        }
      ],
      "name": "register",
      "outputs": [],
      "stateMutability": "nonpayable",
      "type": "function"
    },
    {
      "inputs": [
        {
          "internalType": "string",
          "name": "_username",
          "type": "string"
        },
        {
          "internalType": "string",
          "name": "_password",
          "type": "string"
        }
      ],
      "name": "login",
      "outputs": [],
      "stateMutability": "nonpayable",
      "type": "function"
    },
    {
      "inputs": [
        {
          "internalType": "string",
          "name": "_newusername",
          "type": "string"
        },
        {
          "internalType": "string",
          "name": "_newPassword",
          "type": "string"
        }
      ],
      "name": "modify",
      "outputs": [],
      "stateMutability": "nonpayable",
      "type": "function"
    },
    {
      "inputs": [],
      "name": "logout",
      "outputs": [],
      "stateMutability": "nonpayable",
      "type": "function"
    },
    {
      "inputs": [],
      "name": "look",
      "outputs": [
        {
          "internalType": "uint256",
          "name": "num",
          "type": "uint256"
        }
      ],
      "stateMutability": "nonpayable",
      "type": "function"
    }
  ],
  "bytecode": "0x608060405234801561001057600080fd5b506000808190555061109c806100276000396000f3fe608060405234801561001057600080fd5b5060043610610074576000357c0100000000000000000000000000000000000000000000000000000000900480631f3c99c3146100795780632daf7e98146100835780633ffbd47f1461009f57806358467dbc146100bb5780636c050eae146100d7575b600080fd5b6100816100f5565b005b61009d60048036038101906100989190610a00565b61024f565b005b6100b960048036038101906100b49190610a00565b6103e8565b005b6100d560048036038101906100d09190610a00565b610623565b005b6100df610865565b6040516100ec9190610a91565b60405180910390f35b600160003373ffffffffffffffffffffffffffffffffffffffff1673ffffffffffffffffffffffffffffffffffffffff16815260200190815260200160002060020160019054906101000a900460ff16801561019d5750600160003373ffffffffffffffffffffffffffffffffffffffff1673ffffffffffffffffffffffffffffffffffffffff16815260200190815260200160002060020160009054906101000a900460ff165b6101a657600080fd5b6000600160003373ffffffffffffffffffffffffffffffffffffffff1673ffffffffffffffffffffffffffffffffffffffff16815260200190815260200160002060020160016101000a81548160ff02191690831515021790555060016000546102109190610adb565b6000819055507fe7900c232227c6acb496cef22db9716afc7549a305a7f200e07fbb171cc9d680336040516102459190610b50565b60405180910390a1565b600160003373ffffffffffffffffffffffffffffffffffffffff1673ffffffffffffffffffffffffffffffffffffffff16815260200190815260200160002060020160019054906101000a900460ff166102a857600080fd5b81600160003373ffffffffffffffffffffffffffffffffffffffff1673ffffffffffffffffffffffffffffffffffffffff16815260200190815260200160002060000190816102f79190610d88565b5060028160405160200161030b9190610ec0565b6040516020818303038152906040526040516103279190610f1e565b602060405180830381855afa158015610344573d6000803e3d6000fd5b5050506040513d601f19601f820116820180604052508101906103679190610f6b565b600160003373ffffffffffffffffffffffffffffffffffffffff1673ffffffffffffffffffffffffffffffffffffffff168152602001908152602001600020600101819055507fcc49ae3681b668e167a74bea69fc2da02b20cf7a9de11660bf6020b22ed86414336040516103dc9190610b50565b60405180910390a15050565b600160003373ffffffffffffffffffffffffffffffffffffffff1673ffffffffffffffffffffffffffffffffffffffff16815260200190815260200160002060020160009054906101000a900460ff161561044257600080fd5b60405180608001604052808381526020016002836040516020016104669190610ec0565b6040516020818303038152906040526040516104829190610f1e565b602060405180830381855afa15801561049f573d6000803e3d6000fd5b5050506040513d601f19601f820116820180604052508101906104c29190610f6b565b815260200160011515815260200160001515815250600160003373ffffffffffffffffffffffffffffffffffffffff1673ffffffffffffffffffffffffffffffffffffffff168152602001908152602001600020600082015181600001908161052b9190610d88565b506020820151816001015560408201518160020160006101000a81548160ff02191690831515021790555060608201518160020160016101000a81548160ff02191690831515021790555090505060016000546105889190610f98565b60008190555060018060003373ffffffffffffffffffffffffffffffffffffffff1673ffffffffffffffffffffffffffffffffffffffff16815260200190815260200160002060020160006101000a81548160ff0219169083151502179055507feeda149c76076b34d4b9d8896c2f7efc0d33d1c7b53ea3c5db490d64613f603a336040516106179190610b50565b60405180910390a15050565b600160003373ffffffffffffffffffffffffffffffffffffffff1673ffffffffffffffffffffffffffffffffffffffff16815260200190815260200160002060020160009054906101000a900460ff1661067c57600080fd5b8160405160200161068d9190610ec0565b60405160208183030381529060405280519060200120600160003373ffffffffffffffffffffffffffffffffffffffff1673ffffffffffffffffffffffffffffffffffffffff1681526020019081526020016000206000016040516020016106f5919061104f565b604051602081830303815290604052805190602001201480156107c757506002816040516020016107269190610ec0565b6040516020818303038152906040526040516107429190610f1e565b602060405180830381855afa15801561075f573d6000803e3d6000fd5b5050506040513d601f19601f820116820180604052508101906107829190610f6b565b600160003373ffffffffffffffffffffffffffffffffffffffff1673ffffffffffffffffffffffffffffffffffffffff16815260200190815260200160002060010154145b6107d057600080fd5b60018060003373ffffffffffffffffffffffffffffffffffffffff1673ffffffffffffffffffffffffffffffffffffffff16815260200190815260200160002060020160016101000a81548160ff0219169083151502179055507feecc1c95560ca710186ee51249c5b7ba2cb81699a5abefe6d28825017f5786a2336040516108599190610b50565b60405180910390a15050565b60007f88b5a540a0faa2842dec6280367c8823eeb1174de47b89f1ce9a73b36cf6c679336040516108969190610b50565b60405180910390a1600054905090565b6000604051905090565b600080fd5b600080fd5b600080fd5b600080fd5b6000601f19601f8301169050919050565b7f4e487b7100000000000000000000000000000000000000000000000000000000600052604160045260246000fd5b61090d826108c4565b810181811067ffffffffffffffff8211171561092c5761092b6108d5565b5b80604052505050565b600061093f6108a6565b905061094b8282610904565b919050565b600067ffffffffffffffff82111561096b5761096a6108d5565b5b610974826108c4565b9050602081019050919050565b82818337600083830152505050565b60006109a361099e84610950565b610935565b9050828152602081018484840111156109bf576109be6108bf565b5b6109ca848285610981565b509392505050565b600082601f8301126109e7576109e66108ba565b5b81356109f7848260208601610990565b91505092915050565b60008060408385031215610a1757610a166108b0565b5b600083013567ffffffffffffffff811115610a3557610a346108b5565b5b610a41858286016109d2565b925050602083013567ffffffffffffffff811115610a6257610a616108b5565b5b610a6e858286016109d2565b9150509250929050565b6000819050919050565b610a8b81610a78565b82525050565b6000602082019050610aa66000830184610a82565b92915050565b7f4e487b7100000000000000000000000000000000000000000000000000000000600052601160045260246000fd5b6000610ae682610a78565b9150610af183610a78565b9250828203905081811115610b0957610b08610aac565b5b92915050565b600073ffffffffffffffffffffffffffffffffffffffff82169050919050565b6000610b3a82610b0f565b9050919050565b610b4a81610b2f565b82525050565b6000602082019050610b656000830184610b41565b92915050565b600081519050919050565b7f4e487b7100000000000000000000000000000000000000000000000000000000600052602260045260246000fd5b60006002820490506001821680610bbd57607f821691505b602082108103610bd057610bcf610b76565b5b50919050565b60008190508160005260206000209050919050565b60006020601f8301049050919050565b60008160020a8302905092915050565b600060088302610c3b7fffffffffffffffffffffffffffffffffffffffffffffffffffffffffffffffff82610bfb565b610c458683610bfb565b95508019841693508086168417925050509392505050565b6000819050919050565b6000610c82610c7d610c7884610a78565b610c5d565b610a78565b9050919050565b6000819050919050565b610c9c83610c67565b610cb0610ca882610c89565b848454610c0b565b825550505050565b600090565b610cc5610cb8565b610cd0818484610c93565b505050565b5b81811015610cf457610ce9600082610cbd565b600181019050610cd6565b5050565b601f821115610d3957610d0a81610bd6565b610d1384610beb565b81016020851015610d22578190505b610d36610d2e85610beb565b830182610cd5565b50505b505050565b60008160020a8304905092915050565b6000610d5f60001984600802610d3e565b1980831691505092915050565b6000610d788383610d4e565b9150826002028217905092915050565b610d9182610b6b565b67ffffffffffffffff811115610daa57610da96108d5565b5b610db48254610ba5565b610dbf828285610cf8565b600060209050601f831160018114610df25760008415610de0578287015190505b610dea8582610d6c565b865550610e52565b601f198416610e0086610bd6565b60005b82811015610e2857848901518255600182019150602085019450602081019050610e03565b86831015610e455784890151610e41601f891682610d4e565b8355505b6001600288020188555050505b505050505050565b600081905092915050565b60005b83811015610e83578082015181840152602081019050610e68565b60008484015250505050565b6000610e9a82610b6b565b610ea48185610e5a565b9350610eb4818560208601610e65565b80840191505092915050565b6000610ecc8284610e8f565b915081905092915050565b600081519050919050565b600081905092915050565b6000610ef882610ed7565b610f028185610ee2565b9350610f12818560208601610e65565b80840191505092915050565b6000610f2a8284610eed565b915081905092915050565b6000819050919050565b610f4881610f35565b8114610f5357600080fd5b50565b600081519050610f6581610f3f565b92915050565b600060208284031215610f8157610f806108b0565b5b6000610f8f84828501610f56565b91505092915050565b6000610fa382610a78565b9150610fae83610a78565b9250828201905080821115610fc657610fc5610aac565b5b92915050565b60008154610fd981610ba5565b610fe38186610e5a565b94506001821660008114610ffe576001811461101357611046565b60ff1983168652811515820286019350611046565b61101c85610bd6565b60005b8381101561103e5781548189015260018201915060208101905061101f565b838801955050505b50505092915050565b600061105b8284610fcc565b91508190509291505056fea2646970667358221220ada9a386472832bd6e8c0fa9424ef4e1f692e13530ebd71845219bbb4a9dc5f664736f6c63430008130033",
  "immutableReferences": {},
  "source": "// SPDX-License-Identifier: MIT\r\npragma solidity 0.8.19;\r\n \r\ncontract Authentication {\r\n    uint256 numUsers; // \r\n    struct User{\r\n        string username; // \r\n        bytes32 password; // \r\n        bool hasRegistered; // \r\n        bool hasLogin; // \r\n    }\r\n    // \r\n    mapping(address => User) private addressToUser; \r\n\r\n    event Register(address _add);// \r\n    event Login(address _add);// \r\n    event Modify(address _add);// \r\n    event Logout(address _add);// \r\n    event Look(address _add);// \r\n\r\n    constructor(){\r\n        // \r\n        numUsers = 0;\r\n    }\r\n    // msg.sender msgmsg.sender\r\n    // \r\n    function register(string memory _username, string memory _password) public{\r\n        // \r\n        require(!addressToUser[msg.sender].hasRegistered); \r\n        // \r\n        addressToUser[msg.sender] = User(_username, sha256(abi.encodePacked(_password)), true, false); \r\n        numUsers = numUsers + 1;\r\n        // \r\n        addressToUser[msg.sender].hasRegistered = true;\r\n        // \r\n        emit Register(msg.sender);\r\n    }\r\n\r\n    //\r\n    function login(string memory _username, string memory _password) public{\r\n        //       \r\n        require(addressToUser[msg.sender].hasRegistered); \r\n        //\r\n        require(keccak256(abi.encodePacked(addressToUser[msg.sender].username)) == keccak256(abi.encodePacked(_username)) && addressToUser[msg.sender].password == sha256(abi.encodePacked(_password)));\r\n        // \r\n        addressToUser[msg.sender].hasLogin = true;\r\n        // \r\n        emit Login(msg.sender);\r\n    }\r\n\r\n    // \r\n    function modify(string memory _newusername, string memory _newPassword) public{\r\n        // \r\n        require(addressToUser[msg.sender].hasLogin); \r\n        addressToUser[msg.sender].username = _newusername;\r\n        addressToUser[msg.sender].password = sha256(abi.encodePacked(_newPassword));\r\n        // \r\n        emit Modify(msg.sender);\r\n    }\r\n\r\n    //\r\n    function logout() public{\r\n        // \r\n        require(addressToUser[msg.sender].hasLogin && addressToUser[msg.sender].hasRegistered);\r\n        // \r\n        addressToUser[msg.sender].hasLogin = false;\r\n        // delete addressToUser[msg.sender];\r\n        numUsers = numUsers - 1;\r\n        // \r\n        emit Logout(msg.sender);\r\n    }\r\n\r\n    function look() public returns(uint256 num){\r\n        // \r\n        // require(addressToUser[msg.sender].hasLogin && addressToUser[msg.sender].hasRegistered);\r\n        // // \r\n        // addressToUser[msg.sender].hasLogin = false;\r\n        // delete addressToUser[msg.sender];\r\n        // numUsers = numUsers - 1;\r\n        // \r\n        emit Look(msg.sender);\r\n        return numUsers;\r\n    }\r\n    // uint256 flag; //\r\n    // function setValue(uint256 value) public {\r\n    //     _value = value;\r\n    // }\r\n \r\n    // function getValue() public view returns (uint256) {\r\n    //     return _value;\r\n    // }\r\n    // mapping (string => uint256) public nametoage;\r\n    // struct Peo{\r\n    //     uint256 age;\r\n    //     string name;\r\n    // }\r\n\r\n    // Peo[] public people;\r\n    // function addpeople(uint256 _age, string memory _name) public {\r\n    //     // name = _name;\r\n    //     people.push(Peo(_age, _name));\r\n    //     nametoage[_name]=_age;\r\n    // }\r\n}",
  "sourcePath": "D:\\Elysia\\contracts\\Authentication.sol",
  "compiler": {
    "name": "solc",
    "version": "0.8.19+commit.7dd6d404.Emscripten.clang"
  },
  "schemaVersion": "3.4.16",
  "updatedAt": "2023-12-07T15:49:59.231Z",
  "networkType": "ethereum",
  "devdoc": {
    "kind": "dev",
    "methods": {},
    "version": 1
  },
  "userdoc": {
    "kind": "user",
    "methods": {},
    "version": 1
  }
}