{
  "contractName": "Authentication",
  "abi": [
    {
      "inputs": [],
      "stateMutability": "nonpayable",
      "type": "constructor"
    },
    {
      "anonymous": false,
      "inputs": [
        {
          "indexed": false,
          "internalType": "address",
          "name": "_add",
          "type": "address"
        }
      ],
      "name": "Login",
      "type": "event"
    },
    {
      "anonymous": false,
      "inputs": [
        {
          "indexed": false,
          "internalType": "address",
          "name": "_add",
          "type": "address"
        }
      ],
      "name": "Register",
      "type": "event"
    },
    {
      "inputs": [
        {
          "internalType": "address",
          "name": "",
          "type": "address"
        }
      ],
      "name": "addressToUser",
      "outputs": [
        {
          "internalType": "string",
          "name": "username",
          "type": "string"
        },
        {
          "internalType": "bytes32",
          "name": "password",
          "type": "bytes32"
        },
        {
          "internalType": "bool",
          "name": "isRegistered",
          "type": "bool"
        },
        {
          "internalType": "bool",
          "name": "isLogin",
          "type": "bool"
        }
      ],
      "stateMutability": "view",
      "type": "function",
      "constant": true
    },
    {
      "inputs": [
        {
          "internalType": "string",
          "name": "_username",
          "type": "string"
        },
        {
          "internalType": "string",
          "name": "_password",
          "type": "string"
        }
      ],
      "name": "register",
      "outputs": [],
      "stateMutability": "nonpayable",
      "type": "function"
    },
    {
      "inputs": [
        {
          "internalType": "string",
          "name": "_username",
          "type": "string"
        },
        {
          "internalType": "string",
          "name": "_password",
          "type": "string"
        }
      ],
      "name": "login",
      "outputs": [],
      "stateMutability": "nonpayable",
      "type": "function"
    }
  ],
  "bytecode": "0x608060405234801561001057600080fd5b5060008081905550610ece806100276000396000f3fe608060405234801561001057600080fd5b506004361061005e576000357c0100000000000000000000000000000000000000000000000000000000900480633ffbd47f1461006357806358467dbc1461007f578063edf538861461009b575b600080fd5b61007d60048036038101906100789190610777565b6100ce565b005b61009960048036038101906100949190610777565b610309565b005b6100b560048036038101906100b0919061084d565b61054b565b6040516100c5949392919061092d565b60405180910390f35b600160003373ffffffffffffffffffffffffffffffffffffffff1673ffffffffffffffffffffffffffffffffffffffff16815260200190815260200160002060020160009054906101000a900460ff161561012857600080fd5b604051806080016040528083815260200160028360405160200161014c91906109b5565b6040516020818303038152906040526040516101689190610a13565b602060405180830381855afa158015610185573d6000803e3d6000fd5b5050506040513d601f19601f820116820180604052508101906101a89190610a56565b815260200160011515815260200160001515815250600160003373ffffffffffffffffffffffffffffffffffffffff1673ffffffffffffffffffffffffffffffffffffffff16815260200190815260200160002060008201518160000190816102119190610c9f565b506020820151816001015560408201518160020160006101000a81548160ff02191690831515021790555060608201518160020160016101000a81548160ff021916908315150217905550905050600160005461026e9190610da0565b60008190555060018060003373ffffffffffffffffffffffffffffffffffffffff1673ffffffffffffffffffffffffffffffffffffffff16815260200190815260200160002060020160006101000a81548160ff0219169083151502179055507feeda149c76076b34d4b9d8896c2f7efc0d33d1c7b53ea3c5db490d64613f603a336040516102fd9190610de3565b60405180910390a15050565b600160003373ffffffffffffffffffffffffffffffffffffffff1673ffffffffffffffffffffffffffffffffffffffff16815260200190815260200160002060020160009054906101000a900460ff1661036257600080fd5b8160405160200161037391906109b5565b60405160208183030381529060405280519060200120600160003373ffffffffffffffffffffffffffffffffffffffff1673ffffffffffffffffffffffffffffffffffffffff1681526020019081526020016000206000016040516020016103db9190610e81565b604051602081830303815290604052805190602001201480156104ad575060028160405160200161040c91906109b5565b6040516020818303038152906040526040516104289190610a13565b602060405180830381855afa158015610445573d6000803e3d6000fd5b5050506040513d601f19601f820116820180604052508101906104689190610a56565b600160003373ffffffffffffffffffffffffffffffffffffffff1673ffffffffffffffffffffffffffffffffffffffff16815260200190815260200160002060010154145b6104b657600080fd5b60018060003373ffffffffffffffffffffffffffffffffffffffff1673ffffffffffffffffffffffffffffffffffffffff16815260200190815260200160002060020160016101000a81548160ff0219169083151502179055507feecc1c95560ca710186ee51249c5b7ba2cb81699a5abefe6d28825017f5786a23360405161053f9190610de3565b60405180910390a15050565b600160205280600052604060002060009150905080600001805461056e90610ab2565b80601f016020809104026020016040519081016040528092919081815260200182805461059a90610ab2565b80156105e75780601f106105bc576101008083540402835291602001916105e7565b820191906000526020600020905b8154815290600101906020018083116105ca57829003601f168201915b5050505050908060010154908060020160009054906101000a900460ff16908060020160019054906101000a900460ff16905084565b6000604051905090565b600080fd5b600080fd5b600080fd5b600080fd5b6000601f19601f8301169050919050565b7f4e487b7100000000000000000000000000000000000000000000000000000000600052604160045260246000fd5b6106848261063b565b810181811067ffffffffffffffff821117156106a3576106a261064c565b5b80604052505050565b60006106b661061d565b90506106c2828261067b565b919050565b600067ffffffffffffffff8211156106e2576106e161064c565b5b6106eb8261063b565b9050602081019050919050565b82818337600083830152505050565b600061071a610715846106c7565b6106ac565b90508281526020810184848401111561073657610735610636565b5b6107418482856106f8565b509392505050565b600082601f83011261075e5761075d610631565b5b813561076e848260208601610707565b91505092915050565b6000806040838503121561078e5761078d610627565b5b600083013567ffffffffffffffff8111156107ac576107ab61062c565b5b6107b885828601610749565b925050602083013567ffffffffffffffff8111156107d9576107d861062c565b5b6107e585828601610749565b9150509250929050565b600073ffffffffffffffffffffffffffffffffffffffff82169050919050565b600061081a826107ef565b9050919050565b61082a8161080f565b811461083557600080fd5b50565b60008135905061084781610821565b92915050565b60006020828403121561086357610862610627565b5b600061087184828501610838565b91505092915050565b600081519050919050565b600082825260208201905092915050565b60005b838110156108b4578082015181840152602081019050610899565b60008484015250505050565b60006108cb8261087a565b6108d58185610885565b93506108e5818560208601610896565b6108ee8161063b565b840191505092915050565b6000819050919050565b61090c816108f9565b82525050565b60008115159050919050565b61092781610912565b82525050565b6000608082019050818103600083015261094781876108c0565b90506109566020830186610903565b610963604083018561091e565b610970606083018461091e565b95945050505050565b600081905092915050565b600061098f8261087a565b6109998185610979565b93506109a9818560208601610896565b80840191505092915050565b60006109c18284610984565b915081905092915050565b600081519050919050565b600081905092915050565b60006109ed826109cc565b6109f781856109d7565b9350610a07818560208601610896565b80840191505092915050565b6000610a1f82846109e2565b915081905092915050565b610a33816108f9565b8114610a3e57600080fd5b50565b600081519050610a5081610a2a565b92915050565b600060208284031215610a6c57610a6b610627565b5b6000610a7a84828501610a41565b91505092915050565b7f4e487b7100000000000000000000000000000000000000000000000000000000600052602260045260246000fd5b60006002820490506001821680610aca57607f821691505b602082108103610add57610adc610a83565b5b50919050565b60008190508160005260206000209050919050565b60006020601f8301049050919050565b60008160020a8302905092915050565b600060088302610b487fffffffffffffffffffffffffffffffffffffffffffffffffffffffffffffffff82610b08565b610b528683610b08565b95508019841693508086168417925050509392505050565b6000819050919050565b6000819050919050565b6000610b99610b94610b8f84610b6a565b610b74565b610b6a565b9050919050565b6000819050919050565b610bb383610b7e565b610bc7610bbf82610ba0565b848454610b18565b825550505050565b600090565b610bdc610bcf565b610be7818484610baa565b505050565b5b81811015610c0b57610c00600082610bd4565b600181019050610bed565b5050565b601f821115610c5057610c2181610ae3565b610c2a84610af8565b81016020851015610c39578190505b610c4d610c4585610af8565b830182610bec565b50505b505050565b60008160020a8304905092915050565b6000610c7660001984600802610c55565b1980831691505092915050565b6000610c8f8383610c65565b9150826002028217905092915050565b610ca88261087a565b67ffffffffffffffff811115610cc157610cc061064c565b5b610ccb8254610ab2565b610cd6828285610c0f565b600060209050601f831160018114610d095760008415610cf7578287015190505b610d018582610c83565b865550610d69565b601f198416610d1786610ae3565b60005b82811015610d3f57848901518255600182019150602085019450602081019050610d1a565b86831015610d5c5784890151610d58601f891682610c65565b8355505b6001600288020188555050505b505050505050565b7f4e487b7100000000000000000000000000000000000000000000000000000000600052601160045260246000fd5b6000610dab82610b6a565b9150610db683610b6a565b9250828201905080821115610dce57610dcd610d71565b5b92915050565b610ddd8161080f565b82525050565b6000602082019050610df86000830184610dd4565b92915050565b60008154610e0b81610ab2565b610e158186610979565b94506001821660008114610e305760018114610e4557610e78565b60ff1983168652811515820286019350610e78565b610e4e85610ae3565b60005b83811015610e7057815481890152600182019150602081019050610e51565b838801955050505b50505092915050565b6000610e8d8284610dfe565b91508190509291505056fea264697066735822122005da10b1970a4dcf17f0372f2021f7823537714a07961d30da671e6a0f7cf42b64736f6c63430008130033",
  "immutableReferences": {},
  "source": "// SPDX-License-Identifier: MIT\r\npragma solidity 0.8.19;\r\n \r\ncontract Authentication {\r\n    uint256 numUsers; // \r\n    struct User{\r\n        string username; // \r\n        bytes32 password; // \r\n        bool isRegistered; // \r\n        bool isLogin; // \r\n    }\r\n    // \r\n    mapping(address => User) public  addressToUser; \r\n\r\n    event Register(address _add);// \r\n    event Login(address _add);// \r\n\r\n    constructor(){\r\n        // \r\n        numUsers = 0;\r\n    }\r\n    // msg.sender msgmsg.sender\r\n    // \r\n    function register(string memory _username, string memory _password) public{\r\n        // \r\n        require(!addressToUser[msg.sender].isRegistered); \r\n        // \r\n        addressToUser[msg.sender] = User(_username, sha256(abi.encodePacked(_password)), true, false); \r\n        numUsers = numUsers + 1;\r\n        // \r\n        addressToUser[msg.sender].isRegistered = true;\r\n        // \r\n        emit Register(msg.sender);\r\n    }\r\n\r\n    //\r\n    function login(string memory _username, string memory _password) public{\r\n        //       \r\n        require(addressToUser[msg.sender].isRegistered); \r\n        //\r\n        require(keccak256(abi.encodePacked(addressToUser[msg.sender].username)) == keccak256(abi.encodePacked(_username)) && addressToUser[msg.sender].password == sha256(abi.encodePacked(_password)));\r\n        // \r\n        addressToUser[msg.sender].isLogin = true;\r\n        // \r\n        emit Login(msg.sender);\r\n    }\r\n}",
  "sourcePath": "D:\\Elysia\\contracts\\Authentication.sol",
  "compiler": {
    "name": "solc",
    "version": "0.8.19+commit.7dd6d404.Emscripten.clang"
  },
  "schemaVersion": "3.4.16",
  "updatedAt": "2023-12-08T07:55:04.703Z",
  "networkType": "ethereum",
  "devdoc": {
    "kind": "dev",
    "methods": {},
    "version": 1
  },
  "userdoc": {
    "kind": "user",
    "methods": {},
    "version": 1
  }
}