{
  "contractName": "SimpleStorage",
  "abi": [
    {
      "inputs": [
        {
          "internalType": "string",
          "name": "",
          "type": "string"
        }
      ],
      "name": "nametoage",
      "outputs": [
        {
          "internalType": "uint256",
          "name": "",
          "type": "uint256"
        }
      ],
      "stateMutability": "view",
      "type": "function"
    },
    {
      "inputs": [
        {
          "internalType": "uint256",
          "name": "",
          "type": "uint256"
        }
      ],
      "name": "people",
      "outputs": [
        {
          "internalType": "uint256",
          "name": "age",
          "type": "uint256"
        },
        {
          "internalType": "string",
          "name": "name",
          "type": "string"
        }
      ],
      "stateMutability": "view",
      "type": "function"
    },
    {
      "inputs": [
        {
          "internalType": "uint256",
          "name": "_age",
          "type": "uint256"
        },
        {
          "internalType": "string",
          "name": "_name",
          "type": "string"
        }
      ],
      "name": "addpeople",
      "outputs": [],
      "stateMutability": "nonpayable",
      "type": "function"
    }
  ],
  "bytecode": "0x608060405234801561000f575f80fd5b5061088f8061001d5f395ff3fe608060405234801561000f575f80fd5b506004361061003f575f3560e01c8063894ec03d146100435780639e7a13ad14610073578063df676e59146100a4575b5f80fd5b61005d60048036038101906100589190610371565b6100c0565b60405161006a91906103d0565b60405180910390f35b61008d60048036038101906100889190610413565b6100ec565b60405161009b9291906104b8565b60405180910390f35b6100be60048036038101906100b991906104e6565b6101a1565b005b5f818051602081018201805184825260208301602085012081835280955050505050505f915090505481565b600181815481106100fb575f80fd5b905f5260205f2090600202015f91509050805f0154908060010180546101209061056d565b80601f016020809104026020016040519081016040528092919081815260200182805461014c9061056d565b80156101975780601f1061016e57610100808354040283529160200191610197565b820191905f5260205f20905b81548152906001019060200180831161017a57829003601f168201915b5050505050905082565b6001604051806040016040528084815260200183815250908060018154018082558091505060019003905f5260205f2090600202015f909190919091505f820151815f015560208201518160010190816101fb919061073a565b505050815f8260405161020e9190610843565b9081526020016040518091039020819055505050565b5f604051905090565b5f80fd5b5f80fd5b5f80fd5b5f80fd5b5f601f19601f8301169050919050565b7f4e487b71000000000000000000000000000000000000000000000000000000005f52604160045260245ffd5b6102838261023d565b810181811067ffffffffffffffff821117156102a2576102a161024d565b5b80604052505050565b5f6102b4610224565b90506102c0828261027a565b919050565b5f67ffffffffffffffff8211156102df576102de61024d565b5b6102e88261023d565b9050602081019050919050565b828183375f83830152505050565b5f610315610310846102c5565b6102ab565b90508281526020810184848401111561033157610330610239565b5b61033c8482856102f5565b509392505050565b5f82601f83011261035857610357610235565b5b8135610368848260208601610303565b91505092915050565b5f602082840312156103865761038561022d565b5b5f82013567ffffffffffffffff8111156103a3576103a2610231565b5b6103af84828501610344565b91505092915050565b5f819050919050565b6103ca816103b8565b82525050565b5f6020820190506103e35f8301846103c1565b92915050565b6103f2816103b8565b81146103fc575f80fd5b50565b5f8135905061040d816103e9565b92915050565b5f602082840312156104285761042761022d565b5b5f610435848285016103ff565b91505092915050565b5f81519050919050565b5f82825260208201905092915050565b5f5b8381101561047557808201518184015260208101905061045a565b5f8484015250505050565b5f61048a8261043e565b6104948185610448565b93506104a4818560208601610458565b6104ad8161023d565b840191505092915050565b5f6040820190506104cb5f8301856103c1565b81810360208301526104dd8184610480565b90509392505050565b5f80604083850312156104fc576104fb61022d565b5b5f610509858286016103ff565b925050602083013567ffffffffffffffff81111561052a57610529610231565b5b61053685828601610344565b9150509250929050565b7f4e487b71000000000000000000000000000000000000000000000000000000005f52602260045260245ffd5b5f600282049050600182168061058457607f821691505b60208210810361059757610596610540565b5b50919050565b5f819050815f5260205f209050919050565b5f6020601f8301049050919050565b5f82821b905092915050565b5f600883026105f97fffffffffffffffffffffffffffffffffffffffffffffffffffffffffffffffff826105be565b61060386836105be565b95508019841693508086168417925050509392505050565b5f819050919050565b5f61063e610639610634846103b8565b61061b565b6103b8565b9050919050565b5f819050919050565b61065783610624565b61066b61066382610645565b8484546105ca565b825550505050565b5f90565b61067f610673565b61068a81848461064e565b505050565b5b818110156106ad576106a25f82610677565b600181019050610690565b5050565b601f8211156106f2576106c38161059d565b6106cc846105af565b810160208510156106db578190505b6106ef6106e7856105af565b83018261068f565b50505b505050565b5f82821c905092915050565b5f6107125f19846008026106f7565b1980831691505092915050565b5f61072a8383610703565b9150826002028217905092915050565b6107438261043e565b67ffffffffffffffff81111561075c5761075b61024d565b5b610766825461056d565b6107718282856106b1565b5f60209050601f8311600181146107a2575f8415610790578287015190505b61079a858261071f565b865550610801565b601f1984166107b08661059d565b5f5b828110156107d7578489015182556001820191506020850194506020810190506107b2565b868310156107f457848901516107f0601f891682610703565b8355505b6001600288020188555050505b505050505050565b5f81905092915050565b5f61081d8261043e565b6108278185610809565b9350610837818560208601610458565b80840191505092915050565b5f61084e8284610813565b91508190509291505056fea2646970667358221220fb8fa00315a70f942a6f695eb3f6953a1b5863a06238c80bec8d05ff1321066264736f6c63430008150033",
  "immutableReferences": {},
  "source": "// SPDX-License-Identifier: MIT\r\npragma solidity ^0.8.0;\r\n \r\ncontract SimpleStorage {\r\n    // uint256 private _value;\r\n \r\n    // function setValue(uint256 value) public {\r\n    //     _value = value;\r\n    // }\r\n \r\n    // function getValue() public view returns (uint256) {\r\n    //     return _value;\r\n    // }\r\n    mapping (string => uint256) public nametoage;\r\n    struct Peo{\r\n        uint256 age;\r\n        string name;\r\n    }\r\n\r\n    Peo[] public people;\r\n    function addpeople(uint256 _age, string memory _name) public {\r\n        // name = _name;\r\n        people.push(Peo(_age, _name));\r\n        nametoage[_name]=_age;\r\n    }\r\n}",
  "sourcePath": "D:\\Elysia\\contracts\\Authentication.sol",
  "compiler": {
    "name": "solc",
    "version": "0.8.21+commit.d9974bed.Emscripten.clang"
  },
  "schemaVersion": "3.4.16",
  "updatedAt": "2023-12-05T12:27:47.250Z",
  "devdoc": {
    "kind": "dev",
    "methods": {},
    "version": 1
  },
  "userdoc": {
    "kind": "user",
    "methods": {},
    "version": 1
  }
}